{
  "contractName": "userInfo",
  "abi": [
    {
      "inputs": [],
      "name": "nextId",
      "outputs": [
        {
          "internalType": "uint256",
          "name": "",
          "type": "uint256"
        }
      ],
      "stateMutability": "view",
      "type": "function"
    },
    {
      "inputs": [
        {
          "internalType": "uint256",
          "name": "",
          "type": "uint256"
        }
      ],
      "name": "users",
      "outputs": [
        {
          "internalType": "uint256",
          "name": "id",
          "type": "uint256"
        },
        {
          "internalType": "string",
          "name": "name",
          "type": "string"
        },
        {
          "internalType": "string",
          "name": "job",
          "type": "string"
        },
        {
          "internalType": "string",
          "name": "jobType",
          "type": "string"
        },
        {
          "internalType": "uint8",
          "name": "reputation",
          "type": "uint8"
        },
        {
          "internalType": "address",
          "name": "account",
          "type": "address"
        }
      ],
      "stateMutability": "view",
      "type": "function"
    },
    {
      "inputs": [
        {
          "internalType": "string",
          "name": "name",
          "type": "string"
        },
        {
          "internalType": "string",
          "name": "job",
          "type": "string"
        },
        {
          "internalType": "string",
          "name": "jobType",
          "type": "string"
        },
        {
          "internalType": "uint8",
          "name": "reputation",
          "type": "uint8"
        },
        {
          "internalType": "address",
          "name": "account",
          "type": "address"
        }
      ],
      "name": "create",
      "outputs": [],
      "stateMutability": "nonpayable",
      "type": "function"
    },
    {
      "inputs": [
        {
          "internalType": "uint256",
          "name": "id",
          "type": "uint256"
        }
      ],
      "name": "read",
      "outputs": [
        {
          "internalType": "uint256",
          "name": "",
          "type": "uint256"
        },
        {
          "internalType": "string",
          "name": "",
          "type": "string"
        },
        {
          "internalType": "string",
          "name": "",
          "type": "string"
        },
        {
          "internalType": "string",
          "name": "",
          "type": "string"
        },
        {
          "internalType": "uint8",
          "name": "",
          "type": "uint8"
        },
        {
          "internalType": "address",
          "name": "",
          "type": "address"
        }
      ],
      "stateMutability": "view",
      "type": "function"
    },
    {
      "inputs": [
        {
          "internalType": "uint256",
          "name": "id",
          "type": "uint256"
        },
        {
          "internalType": "address",
          "name": "account",
          "type": "address"
        }
      ],
      "name": "updateAccount",
      "outputs": [],
      "stateMutability": "nonpayable",
      "type": "function"
    },
    {
      "inputs": [
        {
          "internalType": "uint256",
          "name": "id",
          "type": "uint256"
        },
        {
          "internalType": "string",
          "name": "job",
          "type": "string"
        }
      ],
      "name": "updateJob",
      "outputs": [],
      "stateMutability": "nonpayable",
      "type": "function"
    },
    {
      "inputs": [
        {
          "internalType": "uint256",
          "name": "id",
          "type": "uint256"
        },
        {
          "internalType": "uint8",
          "name": "reputation",
          "type": "uint8"
        }
      ],
      "name": "updateReputation",
      "outputs": [],
      "stateMutability": "nonpayable",
      "type": "function"
    }
  ],
  "bytecode": "0x608060405234801561001057600080fd5b5061111b806100206000396000f3fe608060405234801561001057600080fd5b506004361061007d5760003560e01c8063a3416b671161005b578063a3416b67146100f1578063abcdf3f21461010d578063e2151f7d14610129578063ed2e5a97146101455761007d565b8063365b98b21461008257806340b81359146100b757806361b8ce8c146100d3575b600080fd5b61009c60048036038101906100979190610c16565b61017a565b6040516100ae96959493929190610da0565b60405180910390f35b6100d160048036038101906100cc9190610b47565b61038b565b005b6100db6104e8565b6040516100e89190610d85565b60405180910390f35b61010b60048036038101906101069190610c83565b6104ee565b005b61012760048036038101906101229190610c43565b61057e565b005b610143600480360381019061013e9190610cdf565b610638565b005b61015f600480360381019061015a9190610c16565b6106cc565b60405161017196959493929190610da0565b60405180910390f35b6000818154811061018a57600080fd5b90600052602060002090600502016000915090508060000154908060010180546101b390610f13565b80601f01602080910402602001604051908101604052809291908181526020018280546101df90610f13565b801561022c5780601f106102015761010080835404028352916020019161022c565b820191906000526020600020905b81548152906001019060200180831161020f57829003601f168201915b50505050509080600201805461024190610f13565b80601f016020809104026020016040519081016040528092919081815260200182805461026d90610f13565b80156102ba5780601f1061028f576101008083540402835291602001916102ba565b820191906000526020600020905b81548152906001019060200180831161029d57829003601f168201915b5050505050908060030180546102cf90610f13565b80601f01602080910402602001604051908101604052809291908181526020018280546102fb90610f13565b80156103485780601f1061031d57610100808354040283529160200191610348565b820191906000526020600020905b81548152906001019060200180831161032b57829003601f168201915b5050505050908060040160009054906101000a900460ff16908060040160019054906101000a900473ffffffffffffffffffffffffffffffffffffffff16905086565b60006040518060c0016040528060015481526020018781526020018681526020018581526020018460ff1681526020018373ffffffffffffffffffffffffffffffffffffffff1681525090806001815401808255809150506001900390600052602060002090600502016000909190919091506000820151816000015560208201518160010190805190602001906104249291906109f5565b5060408201518160020190805190602001906104419291906109f5565b50606082015181600301908051906020019061045e9291906109f5565b5060808201518160040160006101000a81548160ff021916908360ff16021790555060a08201518160040160016101000a81548173ffffffffffffffffffffffffffffffffffffffff021916908373ffffffffffffffffffffffffffffffffffffffff1602179055505050600160008154809291906104dc90610f76565b91905055505050505050565b60015481565b60005b6000805490508110156105795782600082815481106105135761051261101d565b5b90600052602060002090600502016000015414156105665781600082815481106105405761053f61101d565b5b906000526020600020906005020160020190805190602001906105649291906109f5565b505b808061057190610f76565b9150506104f1565b505050565b60005b6000805490508110156106335782600082815481106105a3576105a261101d565b5b90600052602060002090600502016000015414156106205781600082815481106105d0576105cf61101d565b5b906000526020600020906005020160040160016101000a81548173ffffffffffffffffffffffffffffffffffffffff021916908373ffffffffffffffffffffffffffffffffffffffff1602179055505b808061062b90610f76565b915050610581565b505050565b60005b6000805490508110156106c757826000828154811061065d5761065c61101d565b5b90600052602060002090600502016000015414156106b457816000828154811061068a5761068961101d565b5b906000526020600020906005020160040160006101000a81548160ff021916908360ff1602179055505b80806106bf90610f76565b91505061063b565b505050565b6000606080606060008060005b6000805490508110156109ea5787600082815481106106fb576106fa61101d565b5b90600052602060002090600502016000015414156109d757600081815481106107275761072661101d565b5b9060005260206000209060050201600001546000828154811061074d5761074c61101d565b5b9060005260206000209060050201600101600083815481106107725761077161101d565b5b9060005260206000209060050201600201600084815481106107975761079661101d565b5b9060005260206000209060050201600301600085815481106107bc576107bb61101d565b5b906000526020600020906005020160040160009054906101000a900460ff16600086815481106107ef576107ee61101d565b5b906000526020600020906005020160040160019054906101000a900473ffffffffffffffffffffffffffffffffffffffff1684805461082d90610f13565b80601f016020809104026020016040519081016040528092919081815260200182805461085990610f13565b80156108a65780601f1061087b576101008083540402835291602001916108a6565b820191906000526020600020905b81548152906001019060200180831161088957829003601f168201915b505050505094508380546108b990610f13565b80601f01602080910402602001604051908101604052809291908181526020018280546108e590610f13565b80156109325780601f1061090757610100808354040283529160200191610932565b820191906000526020600020905b81548152906001019060200180831161091557829003601f168201915b5050505050935082805461094590610f13565b80601f016020809104026020016040519081016040528092919081815260200182805461097190610f13565b80156109be5780601f10610993576101008083540402835291602001916109be565b820191906000526020600020905b8154815290600101906020018083116109a157829003601f168201915b50505050509250965096509650965096509650506109ec565b80806109e290610f76565b9150506106d9565b505b91939550919395565b828054610a0190610f13565b90600052602060002090601f016020900481019282610a235760008555610a6a565b82601f10610a3c57805160ff1916838001178555610a6a565b82800160010185558215610a6a579182015b82811115610a69578251825591602001919060010190610a4e565b5b509050610a779190610a7b565b5090565b5b80821115610a94576000816000905550600101610a7c565b5090565b6000610aab610aa684610e3b565b610e16565b905082815260208101848484011115610ac757610ac6611080565b5b610ad2848285610ed1565b509392505050565b600081359050610ae9816110a0565b92915050565b600082601f830112610b0457610b0361107b565b5b8135610b14848260208601610a98565b91505092915050565b600081359050610b2c816110b7565b92915050565b600081359050610b41816110ce565b92915050565b600080600080600060a08688031215610b6357610b6261108a565b5b600086013567ffffffffffffffff811115610b8157610b80611085565b5b610b8d88828901610aef565b955050602086013567ffffffffffffffff811115610bae57610bad611085565b5b610bba88828901610aef565b945050604086013567ffffffffffffffff811115610bdb57610bda611085565b5b610be788828901610aef565b9350506060610bf888828901610b32565b9250506080610c0988828901610ada565b9150509295509295909350565b600060208284031215610c2c57610c2b61108a565b5b6000610c3a84828501610b1d565b91505092915050565b60008060408385031215610c5a57610c5961108a565b5b6000610c6885828601610b1d565b9250506020610c7985828601610ada565b9150509250929050565b60008060408385031215610c9a57610c9961108a565b5b6000610ca885828601610b1d565b925050602083013567ffffffffffffffff811115610cc957610cc8611085565b5b610cd585828601610aef565b9150509250929050565b60008060408385031215610cf657610cf561108a565b5b6000610d0485828601610b1d565b9250506020610d1585828601610b32565b9150509250929050565b610d2881610e88565b82525050565b6000610d3982610e6c565b610d438185610e77565b9350610d53818560208601610ee0565b610d5c8161108f565b840191505092915050565b610d7081610eba565b82525050565b610d7f81610ec4565b82525050565b6000602082019050610d9a6000830184610d67565b92915050565b600060c082019050610db56000830189610d67565b8181036020830152610dc78188610d2e565b90508181036040830152610ddb8187610d2e565b90508181036060830152610def8186610d2e565b9050610dfe6080830185610d76565b610e0b60a0830184610d1f565b979650505050505050565b6000610e20610e31565b9050610e2c8282610f45565b919050565b6000604051905090565b600067ffffffffffffffff821115610e5657610e5561104c565b5b610e5f8261108f565b9050602081019050919050565b600081519050919050565b600082825260208201905092915050565b6000610e9382610e9a565b9050919050565b600073ffffffffffffffffffffffffffffffffffffffff82169050919050565b6000819050919050565b600060ff82169050919050565b82818337600083830152505050565b60005b83811015610efe578082015181840152602081019050610ee3565b83811115610f0d576000848401525b50505050565b60006002820490506001821680610f2b57607f821691505b60208210811415610f3f57610f3e610fee565b5b50919050565b610f4e8261108f565b810181811067ffffffffffffffff82111715610f6d57610f6c61104c565b5b80604052505050565b6000610f8182610eba565b91507fffffffffffffffffffffffffffffffffffffffffffffffffffffffffffffffff821415610fb457610fb3610fbf565b5b600182019050919050565b7f4e487b7100000000000000000000000000000000000000000000000000000000600052601160045260246000fd5b7f4e487b7100000000000000000000000000000000000000000000000000000000600052602260045260246000fd5b7f4e487b7100000000000000000000000000000000000000000000000000000000600052603260045260246000fd5b7f4e487b7100000000000000000000000000000000000000000000000000000000600052604160045260246000fd5b600080fd5b600080fd5b600080fd5b600080fd5b6000601f19601f8301169050919050565b6110a981610e88565b81146110b457600080fd5b50565b6110c081610eba565b81146110cb57600080fd5b50565b6110d781610ec4565b81146110e257600080fd5b5056fea26469706673582212207da4494868cdde87849be5cab50293addf63bf59ebfbc38176b775b250bbaff564736f6c63430008060033",
  "immutableReferences": {},
  "source": "pragma solidity >=0.4.22 <0.9.0;\n\ncontract userInfo {\n    struct User {\n        uint256 id;\n        string name;\n        string job; // TODO: add multiple jobs funcitonality. Needs to be dynamic array\n        string jobType;\n        uint8 reputation;\n        address account;\n    }\n    User[] public users;\n    uint256 public nextId;\n\n    function create(\n        string memory name,\n        string memory job,\n        string memory jobType,\n        uint8 reputation,\n        address account\n    ) public {\n        users.push(\n            User({\n                id: nextId,\n                name: name,\n                job: job,\n                jobType: jobType,\n                reputation: reputation,\n                account: account\n            })\n        );\n        nextId++;\n    }\n\n    function read(uint256 id) view public returns(uint256, string memory, string memory, string memory, uint8, address){\n\t    for (uint256 i = 0; i < users.length; i++) {\n\t\t    if (users[i].id == id) {\n\t\t\t   return(users[i].id, users[i].name, users[i].job, users[i].jobType, users[i].reputation, users[i].account);\n\t\t    }\n\t\t\t   \n\t\t    \n\t    }\n    }\n\n    //TODO: update functionality for all other params of the struct\n\n    function updateAccount(uint256 id, address account) public {\n\t    for (uint256 i = 0; i < users.length; i++) {\n\t\t    if (users[i].id == id) {\n\t\t\t    users[i].account = account;\n\t\t    }\n\t    }\n    }\n\n    function updateJob(uint256 id, string memory job) public {\n\t    for (uint256 i = 0; i < users.length; i++) {\n\t\t    if (users[i].id == id) {\n\t\t\t    users[i].job = job;\n\t\t    }\n\t    }\n    }\n\n    function updateReputation(uint256 id, uint8 reputation) public {\n\t    for (uint256 i = 0; i < users.length; i++) {\n\t\t    if (users[i].id == id) {\n\t\t\t    users[i].reputation = reputation;\n\t\t    }\n\t    }\n    }\n  //TODO: implement destroy functionality if a user wants to quit\n}\n",
  "sourcePath": "/Users/joao/Code/DCARP/pd-companies/src/contracts/UserInfo.sol",
  "compiler": {
    "name": "solc",
    "version": "0.8.6+commit.11564f7e.Emscripten.clang"
  },
  "schemaVersion": "3.4.2",
  "updatedAt": "2021-07-30T15:24:07.036Z",
  "devdoc": {
    "kind": "dev",
    "methods": {},
    "version": 1
  },
  "userdoc": {
    "kind": "user",
    "methods": {},
    "version": 1
  }
}